{
  "_format": "hh-sol-artifact-1",
  "contractName": "DataStorage",
  "sourceName": "contracts/DataStorage.sol",
  "abi": [
    {
      "inputs": [],
      "stateMutability": "nonpayable",
      "type": "constructor"
    },
    {
      "anonymous": false,
      "inputs": [
        {
          "indexed": true,
          "internalType": "address",
          "name": "owner",
          "type": "address"
        },
        {
          "indexed": true,
          "internalType": "address",
          "name": "grantedTo",
          "type": "address"
        }
      ],
      "name": "AccessGranted",
      "type": "event"
    },
    {
      "anonymous": false,
      "inputs": [
        {
          "indexed": true,
          "internalType": "address",
          "name": "owner",
          "type": "address"
        },
        {
          "indexed": true,
          "internalType": "address",
          "name": "revokedFrom",
          "type": "address"
        }
      ],
      "name": "AccessRevoked",
      "type": "event"
    },
    {
      "anonymous": false,
      "inputs": [
        {
          "indexed": true,
          "internalType": "address",
          "name": "owner",
          "type": "address"
        },
        {
          "indexed": false,
          "internalType": "string",
          "name": "dataHash",
          "type": "string"
        }
      ],
      "name": "DataUpdated",
      "type": "event"
    },
    {
      "anonymous": false,
      "inputs": [
        {
          "indexed": true,
          "internalType": "address",
          "name": "oldOwner",
          "type": "address"
        },
        {
          "indexed": true,
          "internalType": "address",
          "name": "newOwner",
          "type": "address"
        }
      ],
      "name": "OwnershipTransferred",
      "type": "event"
    },
    {
      "inputs": [],
      "name": "getContractOwner",
      "outputs": [
        {
          "internalType": "address",
          "name": "",
          "type": "address"
        }
      ],
      "stateMutability": "view",
      "type": "function"
    },
    {
      "inputs": [
        {
          "internalType": "address",
          "name": "_owner",
          "type": "address"
        }
      ],
      "name": "getData",
      "outputs": [
        {
          "internalType": "string",
          "name": "",
          "type": "string"
        }
      ],
      "stateMutability": "view",
      "type": "function"
    },
    {
      "inputs": [
        {
          "internalType": "address",
          "name": "_user",
          "type": "address"
        }
      ],
      "name": "grantAccess",
      "outputs": [],
      "stateMutability": "nonpayable",
      "type": "function"
    },
    {
      "inputs": [
        {
          "internalType": "address",
          "name": "_owner",
          "type": "address"
        },
        {
          "internalType": "address",
          "name": "_user",
          "type": "address"
        }
      ],
      "name": "hasAccess",
      "outputs": [
        {
          "internalType": "bool",
          "name": "",
          "type": "bool"
        }
      ],
      "stateMutability": "view",
      "type": "function"
    },
    {
      "inputs": [
        {
          "internalType": "address",
          "name": "_user",
          "type": "address"
        }
      ],
      "name": "revokeAccess",
      "outputs": [],
      "stateMutability": "nonpayable",
      "type": "function"
    },
    {
      "inputs": [
        {
          "internalType": "string",
          "name": "_dataHash",
          "type": "string"
        }
      ],
      "name": "storeData",
      "outputs": [],
      "stateMutability": "nonpayable",
      "type": "function"
    },
    {
      "inputs": [
        {
          "internalType": "address",
          "name": "_newOwner",
          "type": "address"
        }
      ],
      "name": "transferContractOwnership",
      "outputs": [],
      "stateMutability": "nonpayable",
      "type": "function"
    },
    {
      "inputs": [
        {
          "internalType": "address",
          "name": "_newOwner",
          "type": "address"
        }
      ],
      "name": "transferDataOwnership",
      "outputs": [],
      "stateMutability": "nonpayable",
      "type": "function"
    },
    {
      "inputs": [
        {
          "internalType": "string",
          "name": "_dataHash",
          "type": "string"
        }
      ],
      "name": "updateData",
      "outputs": [],
      "stateMutability": "nonpayable",
      "type": "function"
    }
  ],
  "bytecode": "0x608060405234801561001057600080fd5b5033600260006101000a81548173ffffffffffffffffffffffffffffffffffffffff021916908373ffffffffffffffffffffffffffffffffffffffff160217905550611e6b806100616000396000f3fe608060405234801561001057600080fd5b50600436106100935760003560e01c806368446ead1161006657806368446ead1461013257806385e685311461014e578063a843c51f1461016a578063e4952ddb14610186578063fb218f5f146101a257610093565b80630ae5e739146100985780631709ef07146100b457806338266b22146100e4578063442890d514610114575b600080fd5b6100b260048036038101906100ad919061133a565b6101be565b005b6100ce60048036038101906100c99190611367565b6104b7565b6040516100db91906113c2565b60405180910390f35b6100fe60048036038101906100f9919061133a565b61054b565b60405161010b919061146d565b60405180910390f35b61011c61078c565b604051610129919061149e565b60405180910390f35b61014c600480360381019061014791906115ee565b6107b6565b005b6101686004803603810190610163919061133a565b610969565b005b610184600480360381019061017f919061133a565b610c62565b005b6101a0600480360381019061019b919061133a565b610dff565b005b6101bc60048036038101906101b791906115ee565b61110d565b005b3373ffffffffffffffffffffffffffffffffffffffff166000803373ffffffffffffffffffffffffffffffffffffffff1673ffffffffffffffffffffffffffffffffffffffff16815260200190815260200160002060010160009054906101000a900473ffffffffffffffffffffffffffffffffffffffff1673ffffffffffffffffffffffffffffffffffffffff161461028d576040517f08c379a000000000000000000000000000000000000000000000000000000000815260040161028490611683565b60405180910390fd5b600073ffffffffffffffffffffffffffffffffffffffff168173ffffffffffffffffffffffffffffffffffffffff16036102fc576040517f08c379a00000000000000000000000000000000000000000000000000000000081526004016102f3906116ef565b60405180910390fd5b600160003373ffffffffffffffffffffffffffffffffffffffff1673ffffffffffffffffffffffffffffffffffffffff16815260200190815260200160002060008273ffffffffffffffffffffffffffffffffffffffff1673ffffffffffffffffffffffffffffffffffffffff16815260200190815260200160002060009054906101000a900460ff16156103c6576040517f08c379a00000000000000000000000000000000000000000000000000000000081526004016103bd9061175b565b60405180910390fd5b60018060003373ffffffffffffffffffffffffffffffffffffffff1673ffffffffffffffffffffffffffffffffffffffff16815260200190815260200160002060008373ffffffffffffffffffffffffffffffffffffffff1673ffffffffffffffffffffffffffffffffffffffff16815260200190815260200160002060006101000a81548160ff0219169083151502179055508073ffffffffffffffffffffffffffffffffffffffff163373ffffffffffffffffffffffffffffffffffffffff167f9f520b3bfc56d06f7065d10b4683b3f57ac8895d5026cd176dee95ce1454cb8d60405160405180910390a350565b6000600160008473ffffffffffffffffffffffffffffffffffffffff1673ffffffffffffffffffffffffffffffffffffffff16815260200190815260200160002060008373ffffffffffffffffffffffffffffffffffffffff1673ffffffffffffffffffffffffffffffffffffffff16815260200190815260200160002060009054906101000a900460ff16905092915050565b6060600073ffffffffffffffffffffffffffffffffffffffff168273ffffffffffffffffffffffffffffffffffffffff16036105bc576040517f08c379a00000000000000000000000000000000000000000000000000000000081526004016105b3906117c7565b60405180910390fd5b8173ffffffffffffffffffffffffffffffffffffffff163373ffffffffffffffffffffffffffffffffffffffff16148061067c5750600160008373ffffffffffffffffffffffffffffffffffffffff1673ffffffffffffffffffffffffffffffffffffffff16815260200190815260200160002060003373ffffffffffffffffffffffffffffffffffffffff1673ffffffffffffffffffffffffffffffffffffffff16815260200190815260200160002060009054906101000a900460ff165b6106bb576040517f08c379a00000000000000000000000000000000000000000000000000000000081526004016106b290611859565b60405180910390fd5b6000808373ffffffffffffffffffffffffffffffffffffffff1673ffffffffffffffffffffffffffffffffffffffff1681526020019081526020016000206000018054610707906118a8565b80601f0160208091040260200160405190810160405280929190818152602001828054610733906118a8565b80156107805780601f1061075557610100808354040283529160200191610780565b820191906000526020600020905b81548152906001019060200180831161076357829003601f168201915b50505050509050919050565b6000600260009054906101000a900473ffffffffffffffffffffffffffffffffffffffff16905090565b3373ffffffffffffffffffffffffffffffffffffffff166000803373ffffffffffffffffffffffffffffffffffffffff1673ffffffffffffffffffffffffffffffffffffffff16815260200190815260200160002060010160009054906101000a900473ffffffffffffffffffffffffffffffffffffffff1673ffffffffffffffffffffffffffffffffffffffff1614610885576040517f08c379a000000000000000000000000000000000000000000000000000000000815260040161087c90611683565b60405180910390fd5b60008151116108c9576040517f08c379a00000000000000000000000000000000000000000000000000000000081526004016108c090611925565b60405180910390fd5b806000803373ffffffffffffffffffffffffffffffffffffffff1673ffffffffffffffffffffffffffffffffffffffff16815260200190815260200160002060000190816109179190611afb565b503373ffffffffffffffffffffffffffffffffffffffff167f077380cc4f1ff57ad464ec617331c7304c78fc6bfdd0e3b5efa221a3bb9f6e208260405161095e919061146d565b60405180910390a250565b3373ffffffffffffffffffffffffffffffffffffffff166000803373ffffffffffffffffffffffffffffffffffffffff1673ffffffffffffffffffffffffffffffffffffffff16815260200190815260200160002060010160009054906101000a900473ffffffffffffffffffffffffffffffffffffffff1673ffffffffffffffffffffffffffffffffffffffff1614610a38576040517f08c379a0000000000000000000000000000000000000000000000000000000008152600401610a2f90611683565b60405180910390fd5b600073ffffffffffffffffffffffffffffffffffffffff168173ffffffffffffffffffffffffffffffffffffffff1603610aa7576040517f08c379a0000000000000000000000000000000000000000000000000000000008152600401610a9e906116ef565b60405180910390fd5b600160003373ffffffffffffffffffffffffffffffffffffffff1673ffffffffffffffffffffffffffffffffffffffff16815260200190815260200160002060008273ffffffffffffffffffffffffffffffffffffffff1673ffffffffffffffffffffffffffffffffffffffff16815260200190815260200160002060009054906101000a900460ff16610b70576040517f08c379a0000000000000000000000000000000000000000000000000000000008152600401610b6790611c19565b60405180910390fd5b6000600160003373ffffffffffffffffffffffffffffffffffffffff1673ffffffffffffffffffffffffffffffffffffffff16815260200190815260200160002060008373ffffffffffffffffffffffffffffffffffffffff1673ffffffffffffffffffffffffffffffffffffffff16815260200190815260200160002060006101000a81548160ff0219169083151502179055508073ffffffffffffffffffffffffffffffffffffffff163373ffffffffffffffffffffffffffffffffffffffff167f825c8be24eb0df19500f63e86c29e7d0d951e73056b889b891d85e40938d9b6e60405160405180910390a350565b600260009054906101000a900473ffffffffffffffffffffffffffffffffffffffff1673ffffffffffffffffffffffffffffffffffffffff163373ffffffffffffffffffffffffffffffffffffffff1614610cf2576040517f08c379a0000000000000000000000000000000000000000000000000000000008152600401610ce990611c85565b60405180910390fd5b600073ffffffffffffffffffffffffffffffffffffffff168173ffffffffffffffffffffffffffffffffffffffff1603610d61576040517f08c379a0000000000000000000000000000000000000000000000000000000008152600401610d5890611d17565b60405180910390fd5b80600260006101000a81548173ffffffffffffffffffffffffffffffffffffffff021916908373ffffffffffffffffffffffffffffffffffffffff1602179055508073ffffffffffffffffffffffffffffffffffffffff163373ffffffffffffffffffffffffffffffffffffffff167f8be0079c531659141344cd1fd0a4f28419497f9722a3daafe3b4186f6b6457e060405160405180910390a350565b3373ffffffffffffffffffffffffffffffffffffffff166000803373ffffffffffffffffffffffffffffffffffffffff1673ffffffffffffffffffffffffffffffffffffffff16815260200190815260200160002060010160009054906101000a900473ffffffffffffffffffffffffffffffffffffffff1673ffffffffffffffffffffffffffffffffffffffff1614610ece576040517f08c379a0000000000000000000000000000000000000000000000000000000008152600401610ec590611683565b60405180910390fd5b600073ffffffffffffffffffffffffffffffffffffffff168173ffffffffffffffffffffffffffffffffffffffff1603610f3d576040517f08c379a0000000000000000000000000000000000000000000000000000000008152600401610f3490611d17565b60405180910390fd5b6000803373ffffffffffffffffffffffffffffffffffffffff1673ffffffffffffffffffffffffffffffffffffffff1681526020019081526020016000206000808373ffffffffffffffffffffffffffffffffffffffff1673ffffffffffffffffffffffffffffffffffffffff16815260200190815260200160002060008201816000019081610fcd9190611d4d565b506001820160009054906101000a900473ffffffffffffffffffffffffffffffffffffffff168160010160006101000a81548173ffffffffffffffffffffffffffffffffffffffff021916908373ffffffffffffffffffffffffffffffffffffffff1602179055509050506000803373ffffffffffffffffffffffffffffffffffffffff1673ffffffffffffffffffffffffffffffffffffffff16815260200190815260200160002060008082016000611087919061126b565b6001820160006101000a81549073ffffffffffffffffffffffffffffffffffffffff021916905550508073ffffffffffffffffffffffffffffffffffffffff163373ffffffffffffffffffffffffffffffffffffffff167f8be0079c531659141344cd1fd0a4f28419497f9722a3daafe3b4186f6b6457e060405160405180910390a350565b6000815111611151576040517f08c379a000000000000000000000000000000000000000000000000000000000815260040161114890611925565b60405180910390fd5b60405180604001604052808281526020013373ffffffffffffffffffffffffffffffffffffffff168152506000803373ffffffffffffffffffffffffffffffffffffffff1673ffffffffffffffffffffffffffffffffffffffff16815260200190815260200160002060008201518160000190816111cf9190611afb565b5060208201518160010160006101000a81548173ffffffffffffffffffffffffffffffffffffffff021916908373ffffffffffffffffffffffffffffffffffffffff1602179055509050503373ffffffffffffffffffffffffffffffffffffffff167f077380cc4f1ff57ad464ec617331c7304c78fc6bfdd0e3b5efa221a3bb9f6e2082604051611260919061146d565b60405180910390a250565b508054611277906118a8565b6000825580601f1061128957506112a8565b601f0160209004906000526020600020908101906112a791906112ab565b5b50565b5b808211156112c45760008160009055506001016112ac565b5090565b6000604051905090565b600080fd5b600080fd5b600073ffffffffffffffffffffffffffffffffffffffff82169050919050565b6000611307826112dc565b9050919050565b611317816112fc565b811461132257600080fd5b50565b6000813590506113348161130e565b92915050565b6000602082840312156113505761134f6112d2565b5b600061135e84828501611325565b91505092915050565b6000806040838503121561137e5761137d6112d2565b5b600061138c85828601611325565b925050602061139d85828601611325565b9150509250929050565b60008115159050919050565b6113bc816113a7565b82525050565b60006020820190506113d760008301846113b3565b92915050565b600081519050919050565b600082825260208201905092915050565b60005b838110156114175780820151818401526020810190506113fc565b60008484015250505050565b6000601f19601f8301169050919050565b600061143f826113dd565b61144981856113e8565b93506114598185602086016113f9565b61146281611423565b840191505092915050565b600060208201905081810360008301526114878184611434565b905092915050565b611498816112fc565b82525050565b60006020820190506114b3600083018461148f565b92915050565b600080fd5b600080fd5b7f4e487b7100000000000000000000000000000000000000000000000000000000600052604160045260246000fd5b6114fb82611423565b810181811067ffffffffffffffff8211171561151a576115196114c3565b5b80604052505050565b600061152d6112c8565b905061153982826114f2565b919050565b600067ffffffffffffffff821115611559576115586114c3565b5b61156282611423565b9050602081019050919050565b82818337600083830152505050565b600061159161158c8461153e565b611523565b9050828152602081018484840111156115ad576115ac6114be565b5b6115b884828561156f565b509392505050565b600082601f8301126115d5576115d46114b9565b5b81356115e584826020860161157e565b91505092915050565b600060208284031215611604576116036112d2565b5b600082013567ffffffffffffffff811115611622576116216112d7565b5b61162e848285016115c0565b91505092915050565b7f596f7520646f6e2774206f776e207468697320646174612e0000000000000000600082015250565b600061166d6018836113e8565b915061167882611637565b602082019050919050565b6000602082019050818103600083015261169c81611660565b9050919050565b7f496e76616c696420757365722061646472657373000000000000000000000000600082015250565b60006116d96014836113e8565b91506116e4826116a3565b602082019050919050565b60006020820190508181036000830152611708816116cc565b9050919050565b7f41636365737320616c7265616479206772616e74656400000000000000000000600082015250565b60006117456016836113e8565b91506117508261170f565b602082019050919050565b6000602082019050818103600083015261177481611738565b9050919050565b7f496e76616c6964206f776e657220616464726573730000000000000000000000600082015250565b60006117b16015836113e8565b91506117bc8261177b565b602082019050919050565b600060208201905081810360008301526117e0816117a4565b9050919050565b7f596f7520646f206e6f7420686176652061636365737320746f2074686973206460008201527f6174612e00000000000000000000000000000000000000000000000000000000602082015250565b60006118436024836113e8565b915061184e826117e7565b604082019050919050565b6000602082019050818103600083015261187281611836565b9050919050565b7f4e487b7100000000000000000000000000000000000000000000000000000000600052602260045260246000fd5b600060028204905060018216806118c057607f821691505b6020821081036118d3576118d2611879565b5b50919050565b7f4461746120686173682063616e6e6f7420626520656d70747900000000000000600082015250565b600061190f6019836113e8565b915061191a826118d9565b602082019050919050565b6000602082019050818103600083015261193e81611902565b9050919050565b60008190508160005260206000209050919050565b60006020601f8301049050919050565b600082821b905092915050565b6000600883026119a77fffffffffffffffffffffffffffffffffffffffffffffffffffffffffffffffff8261196a565b6119b1868361196a565b95508019841693508086168417925050509392505050565b6000819050919050565b6000819050919050565b60006119f86119f36119ee846119c9565b6119d3565b6119c9565b9050919050565b6000819050919050565b611a12836119dd565b611a26611a1e826119ff565b848454611977565b825550505050565b600090565b611a3b611a2e565b611a46818484611a09565b505050565b5b81811015611a6a57611a5f600082611a33565b600181019050611a4c565b5050565b601f821115611aaf57611a8081611945565b611a898461195a565b81016020851015611a98578190505b611aac611aa48561195a565b830182611a4b565b50505b505050565b600082821c905092915050565b6000611ad260001984600802611ab4565b1980831691505092915050565b6000611aeb8383611ac1565b9150826002028217905092915050565b611b04826113dd565b67ffffffffffffffff811115611b1d57611b1c6114c3565b5b611b2782546118a8565b611b32828285611a6e565b600060209050601f831160018114611b655760008415611b53578287015190505b611b5d8582611adf565b865550611bc5565b601f198416611b7386611945565b60005b82811015611b9b57848901518255600182019150602085019450602081019050611b76565b86831015611bb85784890151611bb4601f891682611ac1565b8355505b6001600288020188555050505b505050505050565b7f416363657373206e6f74206772616e7465640000000000000000000000000000600082015250565b6000611c036012836113e8565b9150611c0e82611bcd565b602082019050919050565b60006020820190508181036000830152611c3281611bf6565b9050919050565b7f4e6f7420636f6e7472616374206f776e65722e00000000000000000000000000600082015250565b6000611c6f6013836113e8565b9150611c7a82611c39565b602082019050919050565b60006020820190508181036000830152611c9e81611c62565b9050919050565b7f4e6577206f776e657220616464726573732063616e6e6f74206265207a65726f60008201527f2e00000000000000000000000000000000000000000000000000000000000000602082015250565b6000611d016021836113e8565b9150611d0c82611ca5565b604082019050919050565b60006020820190508181036000830152611d3081611cf4565b9050919050565b600081549050611d46816118a8565b9050919050565b818103611d5b575050611e33565b611d6482611d37565b67ffffffffffffffff811115611d7d57611d7c6114c3565b5b611d8782546118a8565b611d92828285611a6e565b6000601f831160018114611dc15760008415611daf578287015490505b611db98582611adf565b865550611e2c565b601f198416611dcf87611945565b9650611dda86611945565b60005b82811015611e0257848901548255600182019150600185019450602081019050611ddd565b86831015611e1f5784890154611e1b601f891682611ac1565b8355505b6001600288020188555050505b5050505050505b56fea2646970667358221220b7823ce2b32ebdb4f6aadeca54afbb62d6bbcb41e75593c651ffbc95245c498b64736f6c63430008180033",
  "linkReferences": {},
  "deployedLinkReferences": {}
}